{
    "_format": "hh-sol-artifact-1",
    "contractName": "Lunatics",
    "sourceName": "contracts/Lunatics.sol",
    "abi": [
        {
            "inputs": [],
            "stateMutability": "payable",
            "type": "constructor"
        },
        {
            "anonymous": false,
            "inputs": [
                {
                    "indexed": true,
                    "internalType": "address",
                    "name": "owner",
                    "type": "address"
                },
                {
                    "indexed": true,
                    "internalType": "address",
                    "name": "approved",
                    "type": "address"
                },
                {
                    "indexed": true,
                    "internalType": "uint256",
                    "name": "tokenId",
                    "type": "uint256"
                }
            ],
            "name": "Approval",
            "type": "event"
        },
        {
            "anonymous": false,
            "inputs": [
                {
                    "indexed": true,
                    "internalType": "address",
                    "name": "owner",
                    "type": "address"
                },
                {
                    "indexed": true,
                    "internalType": "address",
                    "name": "operator",
                    "type": "address"
                },
                {
                    "indexed": false,
                    "internalType": "bool",
                    "name": "approved",
                    "type": "bool"
                }
            ],
            "name": "ApprovalForAll",
            "type": "event"
        },
        {
            "anonymous": false,
            "inputs": [
                {
                    "indexed": true,
                    "internalType": "address",
                    "name": "previousOwner",
                    "type": "address"
                },
                {
                    "indexed": true,
                    "internalType": "address",
                    "name": "newOwner",
                    "type": "address"
                }
            ],
            "name": "OwnershipTransferred",
            "type": "event"
        },
        {
            "anonymous": false,
            "inputs": [
                {
                    "indexed": true,
                    "internalType": "address",
                    "name": "from",
                    "type": "address"
                },
                {
                    "indexed": true,
                    "internalType": "address",
                    "name": "to",
                    "type": "address"
                },
                {
                    "indexed": true,
                    "internalType": "uint256",
                    "name": "tokenId",
                    "type": "uint256"
                }
            ],
            "name": "Transfer",
            "type": "event"
        },
        {
            "inputs": [
                {
                    "internalType": "address",
                    "name": "to",
                    "type": "address"
                },
                {
                    "internalType": "uint256",
                    "name": "tokenId",
                    "type": "uint256"
                }
            ],
            "name": "approve",
            "outputs": [],
            "stateMutability": "nonpayable",
            "type": "function"
        },
        {
            "inputs": [
                {
                    "internalType": "address",
                    "name": "owner",
                    "type": "address"
                }
            ],
            "name": "balanceOf",
            "outputs": [
                {
                    "internalType": "uint256",
                    "name": "",
                    "type": "uint256"
                }
            ],
            "stateMutability": "view",
            "type": "function"
        },
        {
            "inputs": [
                {
                    "internalType": "uint256",
                    "name": "tokenId",
                    "type": "uint256"
                }
            ],
            "name": "getApproved",
            "outputs": [
                {
                    "internalType": "address",
                    "name": "",
                    "type": "address"
                }
            ],
            "stateMutability": "view",
            "type": "function"
        },
        {
            "inputs": [
                {
                    "internalType": "address",
                    "name": "owner",
                    "type": "address"
                },
                {
                    "internalType": "address",
                    "name": "operator",
                    "type": "address"
                }
            ],
            "name": "isApprovedForAll",
            "outputs": [
                {
                    "internalType": "bool",
                    "name": "",
                    "type": "bool"
                }
            ],
            "stateMutability": "view",
            "type": "function"
        },
        {
            "inputs": [],
            "name": "maxPerWallet",
            "outputs": [
                {
                    "internalType": "uint256",
                    "name": "",
                    "type": "uint256"
                }
            ],
            "stateMutability": "view",
            "type": "function"
        },
        {
            "inputs": [],
            "name": "maxSupply",
            "outputs": [
                {
                    "internalType": "uint256",
                    "name": "",
                    "type": "uint256"
                }
            ],
            "stateMutability": "view",
            "type": "function"
        },
        {
            "inputs": [
                {
                    "internalType": "uint256",
                    "name": "quantity_",
                    "type": "uint256"
                }
            ],
            "name": "mint",
            "outputs": [],
            "stateMutability": "nonpayable",
            "type": "function"
        },
        {
            "inputs": [],
            "name": "name",
            "outputs": [
                {
                    "internalType": "string",
                    "name": "",
                    "type": "string"
                }
            ],
            "stateMutability": "view",
            "type": "function"
        },
        {
            "inputs": [],
            "name": "owner",
            "outputs": [
                {
                    "internalType": "address",
                    "name": "",
                    "type": "address"
                }
            ],
            "stateMutability": "view",
            "type": "function"
        },
        {
            "inputs": [
                {
                    "internalType": "uint256",
                    "name": "tokenId",
                    "type": "uint256"
                }
            ],
            "name": "ownerOf",
            "outputs": [
                {
                    "internalType": "address",
                    "name": "",
                    "type": "address"
                }
            ],
            "stateMutability": "view",
            "type": "function"
        },
        {
            "inputs": [],
            "name": "renounceOwnership",
            "outputs": [],
            "stateMutability": "nonpayable",
            "type": "function"
        },
        {
            "inputs": [
                {
                    "internalType": "address",
                    "name": "from",
                    "type": "address"
                },
                {
                    "internalType": "address",
                    "name": "to",
                    "type": "address"
                },
                {
                    "internalType": "uint256",
                    "name": "tokenId",
                    "type": "uint256"
                }
            ],
            "name": "safeTransferFrom",
            "outputs": [],
            "stateMutability": "nonpayable",
            "type": "function"
        },
        {
            "inputs": [
                {
                    "internalType": "address",
                    "name": "from",
                    "type": "address"
                },
                {
                    "internalType": "address",
                    "name": "to",
                    "type": "address"
                },
                {
                    "internalType": "uint256",
                    "name": "tokenId",
                    "type": "uint256"
                },
                {
                    "internalType": "bytes",
                    "name": "_data",
                    "type": "bytes"
                }
            ],
            "name": "safeTransferFrom",
            "outputs": [],
            "stateMutability": "nonpayable",
            "type": "function"
        },
        {
            "inputs": [
                {
                    "internalType": "address",
                    "name": "operator",
                    "type": "address"
                },
                {
                    "internalType": "bool",
                    "name": "approved",
                    "type": "bool"
                }
            ],
            "name": "setApprovalForAll",
            "outputs": [],
            "stateMutability": "nonpayable",
            "type": "function"
        },
        {
            "inputs": [
                {
                    "internalType": "string",
                    "name": "baseTokenUri_",
                    "type": "string"
                }
            ],
            "name": "setBaseTokenUri",
            "outputs": [],
            "stateMutability": "nonpayable",
            "type": "function"
        },
        {
            "inputs": [
                {
                    "internalType": "bytes4",
                    "name": "interfaceId",
                    "type": "bytes4"
                }
            ],
            "name": "supportsInterface",
            "outputs": [
                {
                    "internalType": "bool",
                    "name": "",
                    "type": "bool"
                }
            ],
            "stateMutability": "view",
            "type": "function"
        },
        {
            "inputs": [],
            "name": "symbol",
            "outputs": [
                {
                    "internalType": "string",
                    "name": "",
                    "type": "string"
                }
            ],
            "stateMutability": "view",
            "type": "function"
        },
        {
            "inputs": [
                {
                    "internalType": "uint256",
                    "name": "tokenId_",
                    "type": "uint256"
                }
            ],
            "name": "tokenURI",
            "outputs": [
                {
                    "internalType": "string",
                    "name": "",
                    "type": "string"
                }
            ],
            "stateMutability": "view",
            "type": "function"
        },
        {
            "inputs": [],
            "name": "totalSupply",
            "outputs": [
                {
                    "internalType": "uint256",
                    "name": "",
                    "type": "uint256"
                }
            ],
            "stateMutability": "view",
            "type": "function"
        },
        {
            "inputs": [
                {
                    "internalType": "address",
                    "name": "from",
                    "type": "address"
                },
                {
                    "internalType": "address",
                    "name": "to",
                    "type": "address"
                },
                {
                    "internalType": "uint256",
                    "name": "tokenId",
                    "type": "uint256"
                }
            ],
            "name": "transferFrom",
            "outputs": [],
            "stateMutability": "nonpayable",
            "type": "function"
        },
        {
            "inputs": [
                {
                    "internalType": "address",
                    "name": "newOwner",
                    "type": "address"
                }
            ],
            "name": "transferOwnership",
            "outputs": [],
            "stateMutability": "nonpayable",
            "type": "function"
        },
        {
            "inputs": [
                {
                    "internalType": "address",
                    "name": "",
                    "type": "address"
                }
            ],
            "name": "walletMints",
            "outputs": [
                {
                    "internalType": "uint256",
                    "name": "",
                    "type": "uint256"
                }
            ],
            "stateMutability": "view",
            "type": "function"
        },
        {
            "inputs": [],
            "name": "withdraw",
            "outputs": [],
            "stateMutability": "payable",
            "type": "function"
        }
    ],
    "bytecode": "0x60806040526040518060400160405280600881526020017f4c756e61746963730000000000000000000000000000000000000000000000008152506040518060400160405280600881526020017f4b574f4e544f574e000000000000000000000000000000000000000000000000815250816000908051906020019062000088929190620001b0565b508060019080519060200190620000a1929190620001b0565b505050620000c4620000b8620000e260201b60201c565b620000ea60201b60201c565b600060078190555061270f60088190555060098081905550620002c5565b600033905090565b6000600660009054906101000a900473ffffffffffffffffffffffffffffffffffffffff16905081600660006101000a81548173ffffffffffffffffffffffffffffffffffffffff021916908373ffffffffffffffffffffffffffffffffffffffff1602179055508173ffffffffffffffffffffffffffffffffffffffff168173ffffffffffffffffffffffffffffffffffffffff167f8be0079c531659141344cd1fd0a4f28419497f9722a3daafe3b4186f6b6457e060405160405180910390a35050565b828054620001be9062000260565b90600052602060002090601f016020900481019282620001e257600085556200022e565b82601f10620001fd57805160ff19168380011785556200022e565b828001600101855582156200022e579182015b828111156200022d57825182559160200191906001019062000210565b5b5090506200023d919062000241565b5090565b5b808211156200025c57600081600090555060010162000242565b5090565b600060028204905060018216806200027957607f821691505b6020821081141562000290576200028f62000296565b5b50919050565b7f4e487b7100000000000000000000000000000000000000000000000000000000600052602260045260246000fd5b6132bf80620002d56000396000f3fe6080604052600436106101405760003560e01c8063715018a6116100b6578063b88d4fde1161006f578063b88d4fde14610427578063c87b56dd14610450578063d5abeb011461048d578063e985e9c5146104b8578063f0293fd3146104f5578063f2fde38b1461053257610140565b8063715018a61461033f5780638da5cb5b1461035657806395652cfa1461038157806395d89b41146103aa578063a0712d68146103d5578063a22cb465146103fe57610140565b806323b872dd1161010857806323b872dd1461023e5780633ccfd60b1461026757806342842e0e14610271578063453c23101461029a5780636352211e146102c557806370a082311461030257610140565b806301ffc9a71461014557806306fdde0314610182578063081812fc146101ad578063095ea7b3146101ea57806318160ddd14610213575b600080fd5b34801561015157600080fd5b5061016c6004803603810190610167919061216f565b61055b565b60405161017991906126ad565b60405180910390f35b34801561018e57600080fd5b5061019761063d565b6040516101a491906126c8565b60405180910390f35b3480156101b957600080fd5b506101d460048036038101906101cf9190612206565b6106cf565b6040516101e19190612646565b60405180910390f35b3480156101f657600080fd5b50610211600480360381019061020c9190612133565b610754565b005b34801561021f57600080fd5b5061022861086c565b604051610235919061292a565b60405180910390f35b34801561024a57600080fd5b506102656004803603810190610260919061202d565b610872565b005b61026f6108d2565b005b34801561027d57600080fd5b506102986004803603810190610293919061202d565b61099e565b005b3480156102a657600080fd5b506102af6109be565b6040516102bc919061292a565b60405180910390f35b3480156102d157600080fd5b506102ec60048036038101906102e79190612206565b6109c4565b6040516102f99190612646565b60405180910390f35b34801561030e57600080fd5b5061032960048036038101906103249190611fc8565b610a76565b604051610336919061292a565b60405180910390f35b34801561034b57600080fd5b50610354610b2e565b005b34801561036257600080fd5b5061036b610bb6565b6040516103789190612646565b60405180910390f35b34801561038d57600080fd5b506103a860048036038101906103a391906121c1565b610be0565b005b3480156103b657600080fd5b506103bf610c72565b6040516103cc91906126c8565b60405180910390f35b3480156103e157600080fd5b506103fc60048036038101906103f79190612206565b610d04565b005b34801561040a57600080fd5b50610425600480360381019061042091906120f7565b610e3d565b005b34801561043357600080fd5b5061044e6004803603810190610449919061207c565b610e53565b005b34801561045c57600080fd5b5061047760048036038101906104729190612206565b610eb5565b60405161048491906126c8565b60405180910390f35b34801561049957600080fd5b506104a2610f31565b6040516104af919061292a565b60405180910390f35b3480156104c457600080fd5b506104df60048036038101906104da9190611ff1565b610f37565b6040516104ec91906126ad565b60405180910390f35b34801561050157600080fd5b5061051c60048036038101906105179190611fc8565b610fcb565b604051610529919061292a565b60405180910390f35b34801561053e57600080fd5b5061055960048036038101906105549190611fc8565b610fe3565b005b60007f80ac58cd000000000000000000000000000000000000000000000000000000007bffffffffffffffffffffffffffffffffffffffffffffffffffffffff1916827bffffffffffffffffffffffffffffffffffffffffffffffffffffffff1916148061062657507f5b5e139f000000000000000000000000000000000000000000000000000000007bffffffffffffffffffffffffffffffffffffffffffffffffffffffff1916827bffffffffffffffffffffffffffffffffffffffffffffffffffffffff1916145b806106365750610635826110db565b5b9050919050565b60606000805461064c90612b64565b80601f016020809104026020016040519081016040528092919081815260200182805461067890612b64565b80156106c55780601f1061069a576101008083540402835291602001916106c5565b820191906000526020600020905b8154815290600101906020018083116106a857829003601f168201915b5050505050905090565b60006106da82611145565b610719576040517f08c379a00000000000000000000000000000000000000000000000000000000081526004016107109061284a565b60405180910390fd5b6004600083815260200190815260200160002060009054906101000a900473ffffffffffffffffffffffffffffffffffffffff169050919050565b600061075f826109c4565b90508073ffffffffffffffffffffffffffffffffffffffff168373ffffffffffffffffffffffffffffffffffffffff1614156107d0576040517f08c379a00000000000000000000000000000000000000000000000000000000081526004016107c7906128ca565b60405180910390fd5b8073ffffffffffffffffffffffffffffffffffffffff166107ef6111b1565b73ffffffffffffffffffffffffffffffffffffffff16148061081e575061081d816108186111b1565b610f37565b5b61085d576040517f08c379a0000000000000000000000000000000000000000000000000000000008152600401610854906127ca565b60405180910390fd5b61086783836111b9565b505050565b60075481565b61088361087d6111b1565b82611272565b6108c2576040517f08c379a00000000000000000000000000000000000000000000000000000000081526004016108b9906128ea565b60405180910390fd5b6108cd838383611350565b505050565b6108da6111b1565b73ffffffffffffffffffffffffffffffffffffffff166108f8610bb6565b73ffffffffffffffffffffffffffffffffffffffff161461094e576040517f08c379a00000000000000000000000000000000000000000000000000000000081526004016109459061286a565b60405180910390fd5b610956610bb6565b73ffffffffffffffffffffffffffffffffffffffff166108fc479081150290604051600060405180830381858888f1935050505015801561099b573d6000803e3d6000fd5b50565b6109b983838360405180602001604052806000815250610e53565b505050565b60095481565b6000806002600084815260200190815260200160002060009054906101000a900473ffffffffffffffffffffffffffffffffffffffff169050600073ffffffffffffffffffffffffffffffffffffffff168173ffffffffffffffffffffffffffffffffffffffff161415610a6d576040517f08c379a0000000000000000000000000000000000000000000000000000000008152600401610a649061280a565b60405180910390fd5b80915050919050565b60008073ffffffffffffffffffffffffffffffffffffffff168273ffffffffffffffffffffffffffffffffffffffff161415610ae7576040517f08c379a0000000000000000000000000000000000000000000000000000000008152600401610ade906127ea565b60405180910390fd5b600360008373ffffffffffffffffffffffffffffffffffffffff1673ffffffffffffffffffffffffffffffffffffffff168152602001908152602001600020549050919050565b610b366111b1565b73ffffffffffffffffffffffffffffffffffffffff16610b54610bb6565b73ffffffffffffffffffffffffffffffffffffffff1614610baa576040517f08c379a0000000000000000000000000000000000000000000000000000000008152600401610ba19061286a565b60405180910390fd5b610bb460006115b7565b565b6000600660009054906101000a900473ffffffffffffffffffffffffffffffffffffffff16905090565b610be86111b1565b73ffffffffffffffffffffffffffffffffffffffff16610c06610bb6565b73ffffffffffffffffffffffffffffffffffffffff1614610c5c576040517f08c379a0000000000000000000000000000000000000000000000000000000008152600401610c539061286a565b60405180910390fd5b8181600a9190610c6d929190611e0a565b505050565b606060018054610c8190612b64565b80601f0160208091040260200160405190810160405280929190818152602001828054610cad90612b64565b8015610cfa5780601f10610ccf57610100808354040283529160200191610cfa565b820191906000526020600020905b815481529060010190602001808311610cdd57829003601f168201915b5050505050905090565b60085481600754610d1591906129f3565b1115610d56576040517f08c379a0000000000000000000000000000000000000000000000000000000008152600401610d4d906128aa565b60405180910390fd5b60095481600b60003373ffffffffffffffffffffffffffffffffffffffff1673ffffffffffffffffffffffffffffffffffffffff16815260200190815260200160002054610da491906129f3565b1115610de5576040517f08c379a0000000000000000000000000000000000000000000000000000000008152600401610ddc9061288a565b60405180910390fd5b60005b81811015610e395760006001600754610e0191906129f3565b905060076000815480929190610e1690612bc7565b9190505550610e25338261167d565b508080610e3190612bc7565b915050610de8565b5050565b610e4f610e486111b1565b838361169b565b5050565b610e64610e5e6111b1565b83611272565b610ea3576040517f08c379a0000000000000000000000000000000000000000000000000000000008152600401610e9a906128ea565b60405180910390fd5b610eaf84848484611808565b50505050565b6060610ec082611145565b610eff576040517f08c379a0000000000000000000000000000000000000000000000000000000008152600401610ef69061290a565b60405180910390fd5b600a610f0a83611864565b604051602001610f1b929190612617565b6040516020818303038152906040529050919050565b60085481565b6000600560008473ffffffffffffffffffffffffffffffffffffffff1673ffffffffffffffffffffffffffffffffffffffff16815260200190815260200160002060008373ffffffffffffffffffffffffffffffffffffffff1673ffffffffffffffffffffffffffffffffffffffff16815260200190815260200160002060009054906101000a900460ff16905092915050565b600b6020528060005260406000206000915090505481565b610feb6111b1565b73ffffffffffffffffffffffffffffffffffffffff16611009610bb6565b73ffffffffffffffffffffffffffffffffffffffff161461105f576040517f08c379a00000000000000000000000000000000000000000000000000000000081526004016110569061286a565b60405180910390fd5b600073ffffffffffffffffffffffffffffffffffffffff168173ffffffffffffffffffffffffffffffffffffffff1614156110cf576040517f08c379a00000000000000000000000000000000000000000000000000000000081526004016110c69061270a565b60405180910390fd5b6110d8816115b7565b50565b60007f01ffc9a7000000000000000000000000000000000000000000000000000000007bffffffffffffffffffffffffffffffffffffffffffffffffffffffff1916827bffffffffffffffffffffffffffffffffffffffffffffffffffffffff1916149050919050565b60008073ffffffffffffffffffffffffffffffffffffffff166002600084815260200190815260200160002060009054906101000a900473ffffffffffffffffffffffffffffffffffffffff1673ffffffffffffffffffffffffffffffffffffffff1614159050919050565b600033905090565b816004600083815260200190815260200160002060006101000a81548173ffffffffffffffffffffffffffffffffffffffff021916908373ffffffffffffffffffffffffffffffffffffffff160217905550808273ffffffffffffffffffffffffffffffffffffffff1661122c836109c4565b73ffffffffffffffffffffffffffffffffffffffff167f8c5be1e5ebec7d5bd14f71427d1e84f3dd0314c0f7b2291e5b200ac8c7c3b92560405160405180910390a45050565b600061127d82611145565b6112bc576040517f08c379a00000000000000000000000000000000000000000000000000000000081526004016112b3906127aa565b60405180910390fd5b60006112c7836109c4565b90508073ffffffffffffffffffffffffffffffffffffffff168473ffffffffffffffffffffffffffffffffffffffff16148061130957506113088185610f37565b5b8061134757508373ffffffffffffffffffffffffffffffffffffffff1661132f846106cf565b73ffffffffffffffffffffffffffffffffffffffff16145b91505092915050565b8273ffffffffffffffffffffffffffffffffffffffff16611370826109c4565b73ffffffffffffffffffffffffffffffffffffffff16146113c6576040517f08c379a00000000000000000000000000000000000000000000000000000000081526004016113bd9061272a565b60405180910390fd5b600073ffffffffffffffffffffffffffffffffffffffff168273ffffffffffffffffffffffffffffffffffffffff161415611436576040517f08c379a000000000000000000000000000000000000000000000000000000000815260040161142d9061276a565b60405180910390fd5b611441838383611a11565b61144c6000826111b9565b6001600360008573ffffffffffffffffffffffffffffffffffffffff1673ffffffffffffffffffffffffffffffffffffffff168152602001908152602001600020600082825461149c9190612a7a565b925050819055506001600360008473ffffffffffffffffffffffffffffffffffffffff1673ffffffffffffffffffffffffffffffffffffffff16815260200190815260200160002060008282546114f391906129f3565b92505081905550816002600083815260200190815260200160002060006101000a81548173ffffffffffffffffffffffffffffffffffffffff021916908373ffffffffffffffffffffffffffffffffffffffff160217905550808273ffffffffffffffffffffffffffffffffffffffff168473ffffffffffffffffffffffffffffffffffffffff167fddf252ad1be2c89b69c2b068fc378daa952ba7f163c4a11628f55a4df523b3ef60405160405180910390a46115b2838383611a16565b505050565b6000600660009054906101000a900473ffffffffffffffffffffffffffffffffffffffff16905081600660006101000a81548173ffffffffffffffffffffffffffffffffffffffff021916908373ffffffffffffffffffffffffffffffffffffffff1602179055508173ffffffffffffffffffffffffffffffffffffffff168173ffffffffffffffffffffffffffffffffffffffff167f8be0079c531659141344cd1fd0a4f28419497f9722a3daafe3b4186f6b6457e060405160405180910390a35050565b611697828260405180602001604052806000815250611a1b565b5050565b8173ffffffffffffffffffffffffffffffffffffffff168373ffffffffffffffffffffffffffffffffffffffff16141561170a576040517f08c379a00000000000000000000000000000000000000000000000000000000081526004016117019061278a565b60405180910390fd5b80600560008573ffffffffffffffffffffffffffffffffffffffff1673ffffffffffffffffffffffffffffffffffffffff16815260200190815260200160002060008473ffffffffffffffffffffffffffffffffffffffff1673ffffffffffffffffffffffffffffffffffffffff16815260200190815260200160002060006101000a81548160ff0219169083151502179055508173ffffffffffffffffffffffffffffffffffffffff168373ffffffffffffffffffffffffffffffffffffffff167f17307eab39ab6107e8899845ad3d59bd9653f200f220920489ca2b5937696c31836040516117fb91906126ad565b60405180910390a3505050565b611813848484611350565b61181f84848484611a76565b61185e576040517f08c379a0000000000000000000000000000000000000000000000000000000008152600401611855906126ea565b60405180910390fd5b50505050565b606060008214156118ac576040518060400160405280600181526020017f30000000000000000000000000000000000000000000000000000000000000008152509050611a0c565b600082905060005b600082146118de5780806118c790612bc7565b915050600a826118d79190612a49565b91506118b4565b60008167ffffffffffffffff811115611920577f4e487b7100000000000000000000000000000000000000000000000000000000600052604160045260246000fd5b6040519080825280601f01601f1916602001820160405280156119525781602001600182028036833780820191505090505b5090505b60008514611a055760018261196b9190612a7a565b9150600a8561197a9190612c10565b603061198691906129f3565b60f81b8183815181106119c2577f4e487b7100000000000000000000000000000000000000000000000000000000600052603260045260246000fd5b60200101907effffffffffffffffffffffffffffffffffffffffffffffffffffffffffffff1916908160001a905350600a856119fe9190612a49565b9450611956565b8093505050505b919050565b505050565b505050565b611a258383611c0d565b611a326000848484611a76565b611a71576040517f08c379a0000000000000000000000000000000000000000000000000000000008152600401611a68906126ea565b60405180910390fd5b505050565b6000611a978473ffffffffffffffffffffffffffffffffffffffff16611de7565b15611c00578373ffffffffffffffffffffffffffffffffffffffff1663150b7a02611ac06111b1565b8786866040518563ffffffff1660e01b8152600401611ae29493929190612661565b602060405180830381600087803b158015611afc57600080fd5b505af1925050508015611b2d57506040513d601f19601f82011682018060405250810190611b2a9190612198565b60015b611bb0573d8060008114611b5d576040519150601f19603f3d011682016040523d82523d6000602084013e611b62565b606091505b50600081511415611ba8576040517f08c379a0000000000000000000000000000000000000000000000000000000008152600401611b9f906126ea565b60405180910390fd5b805181602001fd5b63150b7a0260e01b7bffffffffffffffffffffffffffffffffffffffffffffffffffffffff1916817bffffffffffffffffffffffffffffffffffffffffffffffffffffffff191614915050611c05565b600190505b949350505050565b600073ffffffffffffffffffffffffffffffffffffffff168273ffffffffffffffffffffffffffffffffffffffff161415611c7d576040517f08c379a0000000000000000000000000000000000000000000000000000000008152600401611c749061282a565b60405180910390fd5b611c8681611145565b15611cc6576040517f08c379a0000000000000000000000000000000000000000000000000000000008152600401611cbd9061274a565b60405180910390fd5b611cd260008383611a11565b6001600360008473ffffffffffffffffffffffffffffffffffffffff1673ffffffffffffffffffffffffffffffffffffffff1681526020019081526020016000206000828254611d2291906129f3565b92505081905550816002600083815260200190815260200160002060006101000a81548173ffffffffffffffffffffffffffffffffffffffff021916908373ffffffffffffffffffffffffffffffffffffffff160217905550808273ffffffffffffffffffffffffffffffffffffffff16600073ffffffffffffffffffffffffffffffffffffffff167fddf252ad1be2c89b69c2b068fc378daa952ba7f163c4a11628f55a4df523b3ef60405160405180910390a4611de360008383611a16565b5050565b6000808273ffffffffffffffffffffffffffffffffffffffff163b119050919050565b828054611e1690612b64565b90600052602060002090601f016020900481019282611e385760008555611e7f565b82601f10611e5157803560ff1916838001178555611e7f565b82800160010185558215611e7f579182015b82811115611e7e578235825591602001919060010190611e63565b5b509050611e8c9190611e90565b5090565b5b80821115611ea9576000816000905550600101611e91565b5090565b6000611ec0611ebb8461296a565b612945565b905082815260208101848484011115611ed857600080fd5b611ee3848285612b22565b509392505050565b600081359050611efa8161322d565b92915050565b600081359050611f0f81613244565b92915050565b600081359050611f248161325b565b92915050565b600081519050611f398161325b565b92915050565b600082601f830112611f5057600080fd5b8135611f60848260208601611ead565b91505092915050565b60008083601f840112611f7b57600080fd5b8235905067ffffffffffffffff811115611f9457600080fd5b602083019150836001820283011115611fac57600080fd5b9250929050565b600081359050611fc281613272565b92915050565b600060208284031215611fda57600080fd5b6000611fe884828501611eeb565b91505092915050565b6000806040838503121561200457600080fd5b600061201285828601611eeb565b925050602061202385828601611eeb565b9150509250929050565b60008060006060848603121561204257600080fd5b600061205086828701611eeb565b935050602061206186828701611eeb565b925050604061207286828701611fb3565b9150509250925092565b6000806000806080858703121561209257600080fd5b60006120a087828801611eeb565b94505060206120b187828801611eeb565b93505060406120c287828801611fb3565b925050606085013567ffffffffffffffff8111156120df57600080fd5b6120eb87828801611f3f565b91505092959194509250565b6000806040838503121561210a57600080fd5b600061211885828601611eeb565b925050602061212985828601611f00565b9150509250929050565b6000806040838503121561214657600080fd5b600061215485828601611eeb565b925050602061216585828601611fb3565b9150509250929050565b60006020828403121561218157600080fd5b600061218f84828501611f15565b91505092915050565b6000602082840312156121aa57600080fd5b60006121b884828501611f2a565b91505092915050565b600080602083850312156121d457600080fd5b600083013567ffffffffffffffff8111156121ee57600080fd5b6121fa85828601611f69565b92509250509250929050565b60006020828403121561221857600080fd5b600061222684828501611fb3565b91505092915050565b61223881612aae565b82525050565b61224781612ac0565b82525050565b6000612258826129b0565b61226281856129c6565b9350612272818560208601612b31565b61227b81612cfd565b840191505092915050565b6000612291826129bb565b61229b81856129d7565b93506122ab818560208601612b31565b6122b481612cfd565b840191505092915050565b60006122ca826129bb565b6122d481856129e8565b93506122e4818560208601612b31565b80840191505092915050565b600081546122fd81612b64565b61230781866129e8565b94506001821660008114612322576001811461233357612366565b60ff19831686528186019350612366565b61233c8561299b565b60005b8381101561235e5781548189015260018201915060208101905061233f565b838801955050505b50505092915050565b600061237c6032836129d7565b915061238782612d0e565b604082019050919050565b600061239f6026836129d7565b91506123aa82612d5d565b604082019050919050565b60006123c26025836129d7565b91506123cd82612dac565b604082019050919050565b60006123e5601c836129d7565b91506123f082612dfb565b602082019050919050565b60006124086024836129d7565b915061241382612e24565b604082019050919050565b600061242b6019836129d7565b915061243682612e73565b602082019050919050565b600061244e602c836129d7565b915061245982612e9c565b604082019050919050565b60006124716038836129d7565b915061247c82612eeb565b604082019050919050565b6000612494602a836129d7565b915061249f82612f3a565b604082019050919050565b60006124b76029836129d7565b91506124c282612f89565b604082019050919050565b60006124da6020836129d7565b91506124e582612fd8565b602082019050919050565b60006124fd602c836129d7565b915061250882613001565b604082019050919050565b60006125206005836129e8565b915061252b82613050565b600582019050919050565b60006125436020836129d7565b915061254e82613079565b602082019050919050565b6000612566602e836129d7565b9150612571826130a2565b604082019050919050565b6000612589603a836129d7565b9150612594826130f1565b604082019050919050565b60006125ac6021836129d7565b91506125b782613140565b604082019050919050565b60006125cf6031836129d7565b91506125da8261318f565b604082019050919050565b60006125f26022836129d7565b91506125fd826131de565b604082019050919050565b61261181612b18565b82525050565b600061262382856122f0565b915061262f82846122bf565b915061263a82612513565b91508190509392505050565b600060208201905061265b600083018461222f565b92915050565b6000608082019050612676600083018761222f565b612683602083018661222f565b6126906040830185612608565b81810360608301526126a2818461224d565b905095945050505050565b60006020820190506126c2600083018461223e565b92915050565b600060208201905081810360008301526126e28184612286565b905092915050565b600060208201905081810360008301526127038161236f565b9050919050565b6000602082019050818103600083015261272381612392565b9050919050565b60006020820190508181036000830152612743816123b5565b9050919050565b60006020820190508181036000830152612763816123d8565b9050919050565b60006020820190508181036000830152612783816123fb565b9050919050565b600060208201905081810360008301526127a38161241e565b9050919050565b600060208201905081810360008301526127c381612441565b9050919050565b600060208201905081810360008301526127e381612464565b9050919050565b6000602082019050818103600083015261280381612487565b9050919050565b60006020820190508181036000830152612823816124aa565b9050919050565b60006020820190508181036000830152612843816124cd565b9050919050565b60006020820190508181036000830152612863816124f0565b9050919050565b6000602082019050818103600083015261288381612536565b9050919050565b600060208201905081810360008301526128a381612559565b9050919050565b600060208201905081810360008301526128c38161257c565b9050919050565b600060208201905081810360008301526128e38161259f565b9050919050565b60006020820190508181036000830152612903816125c2565b9050919050565b60006020820190508181036000830152612923816125e5565b9050919050565b600060208201905061293f6000830184612608565b92915050565b600061294f612960565b905061295b8282612b96565b919050565b6000604051905090565b600067ffffffffffffffff82111561298557612984612cce565b5b61298e82612cfd565b9050602081019050919050565b60008190508160005260206000209050919050565b600081519050919050565b600081519050919050565b600082825260208201905092915050565b600082825260208201905092915050565b600081905092915050565b60006129fe82612b18565b9150612a0983612b18565b9250827fffffffffffffffffffffffffffffffffffffffffffffffffffffffffffffffff03821115612a3e57612a3d612c41565b5b828201905092915050565b6000612a5482612b18565b9150612a5f83612b18565b925082612a6f57612a6e612c70565b5b828204905092915050565b6000612a8582612b18565b9150612a9083612b18565b925082821015612aa357612aa2612c41565b5b828203905092915050565b6000612ab982612af8565b9050919050565b60008115159050919050565b60007fffffffff0000000000000000000000000000000000000000000000000000000082169050919050565b600073ffffffffffffffffffffffffffffffffffffffff82169050919050565b6000819050919050565b82818337600083830152505050565b60005b83811015612b4f578082015181840152602081019050612b34565b83811115612b5e576000848401525b50505050565b60006002820490506001821680612b7c57607f821691505b60208210811415612b9057612b8f612c9f565b5b50919050565b612b9f82612cfd565b810181811067ffffffffffffffff82111715612bbe57612bbd612cce565b5b80604052505050565b6000612bd282612b18565b91507fffffffffffffffffffffffffffffffffffffffffffffffffffffffffffffffff821415612c0557612c04612c41565b5b600182019050919050565b6000612c1b82612b18565b9150612c2683612b18565b925082612c3657612c35612c70565b5b828206905092915050565b7f4e487b7100000000000000000000000000000000000000000000000000000000600052601160045260246000fd5b7f4e487b7100000000000000000000000000000000000000000000000000000000600052601260045260246000fd5b7f4e487b7100000000000000000000000000000000000000000000000000000000600052602260045260246000fd5b7f4e487b7100000000000000000000000000000000000000000000000000000000600052604160045260246000fd5b6000601f19601f8301169050919050565b7f4552433732313a207472616e7366657220746f206e6f6e20455243373231526560008201527f63656976657220696d706c656d656e7465720000000000000000000000000000602082015250565b7f4f776e61626c653a206e6577206f776e657220697320746865207a65726f206160008201527f6464726573730000000000000000000000000000000000000000000000000000602082015250565b7f4552433732313a207472616e736665722066726f6d20696e636f72726563742060008201527f6f776e6572000000000000000000000000000000000000000000000000000000602082015250565b7f4552433732313a20746f6b656e20616c7265616479206d696e74656400000000600082015250565b7f4552433732313a207472616e7366657220746f20746865207a65726f2061646460008201527f7265737300000000000000000000000000000000000000000000000000000000602082015250565b7f4552433732313a20617070726f766520746f2063616c6c657200000000000000600082015250565b7f4552433732313a206f70657261746f7220717565727920666f72206e6f6e657860008201527f697374656e7420746f6b656e0000000000000000000000000000000000000000602082015250565b7f4552433732313a20617070726f76652063616c6c6572206973206e6f74206f7760008201527f6e6572206e6f7220617070726f76656420666f7220616c6c0000000000000000602082015250565b7f4552433732313a2062616c616e636520717565727920666f7220746865207a6560008201527f726f206164647265737300000000000000000000000000000000000000000000602082015250565b7f4552433732313a206f776e657220717565727920666f72206e6f6e657869737460008201527f656e7420746f6b656e0000000000000000000000000000000000000000000000602082015250565b7f4552433732313a206d696e7420746f20746865207a65726f2061646472657373600082015250565b7f4552433732313a20617070726f76656420717565727920666f72206e6f6e657860008201527f697374656e7420746f6b656e0000000000000000000000000000000000000000602082015250565b7f2e6a736f6e000000000000000000000000000000000000000000000000000000600082015250565b7f4f776e61626c653a2063616c6c6572206973206e6f7420746865206f776e6572600082015250565b7f49732074686174204b776f6e3f204d6178206d696e7420726561636865642e2060008201527f477265656420697320476f6f642e000000000000000000000000000000000000602082015250565b7f4e6f7420656e6f75676820726f6f6d20696e204b776f6e20546f776e20666f7260008201527f2074686174206d696e742e20477265656420697320476f6f642e000000000000602082015250565b7f4552433732313a20617070726f76616c20746f2063757272656e74206f776e6560008201527f7200000000000000000000000000000000000000000000000000000000000000602082015250565b7f4552433732313a207472616e736665722063616c6c6572206973206e6f74206f60008201527f776e6572206e6f7220617070726f766564000000000000000000000000000000602082015250565b7f54686973204b776f6e206973206e6f7420696e204b776f6e20546f776e20796560008201527f742e000000000000000000000000000000000000000000000000000000000000602082015250565b61323681612aae565b811461324157600080fd5b50565b61324d81612ac0565b811461325857600080fd5b50565b61326481612acc565b811461326f57600080fd5b50565b61327b81612b18565b811461328657600080fd5b5056fea2646970667358221220acee9e65215907eb6b62e509c3d730f78acbb32f1d4aec582e561e691b96667d64736f6c63430008040033",
    "linkReferences": {},
    "deployedLinkReferences": {}
}